{
	"simple/11.arrays.sol": {
		"test": {
			"abi": [
				{
					"constant": true,
					"inputs": [],
					"name": "testArray",
					"outputs": [],
					"payable": false,
					"stateMutability": "view",
					"type": "function"
				}
			],
			"devdoc": {
				"methods": {}
			},
			"evm": {
				"assembly": "    /* \"simple/11.arrays.sol\":25:531  contract test {... */\n  mstore(0x40, 0x80)\n  callvalue\n    /* \"--CODEGEN--\":8:17   */\n  dup1\n    /* \"--CODEGEN--\":5:7   */\n  iszero\n  tag_1\n  jumpi\n    /* \"--CODEGEN--\":30:31   */\n  0x00\n    /* \"--CODEGEN--\":27:28   */\n  dup1\n    /* \"--CODEGEN--\":20:32   */\n  revert\n    /* \"--CODEGEN--\":5:7   */\ntag_1:\n    /* \"simple/11.arrays.sol\":25:531  contract test {... */\n  pop\n  dataSize(sub_0)\n  dup1\n  dataOffset(sub_0)\n  0x00\n  codecopy\n  0x00\n  return\nstop\n\nsub_0: assembly {\n        /* \"simple/11.arrays.sol\":25:531  contract test {... */\n      mstore(0x40, 0x80)\n      callvalue\n        /* \"--CODEGEN--\":8:17   */\n      dup1\n        /* \"--CODEGEN--\":5:7   */\n      iszero\n      tag_1\n      jumpi\n        /* \"--CODEGEN--\":30:31   */\n      0x00\n        /* \"--CODEGEN--\":27:28   */\n      dup1\n        /* \"--CODEGEN--\":20:32   */\n      revert\n        /* \"--CODEGEN--\":5:7   */\n    tag_1:\n        /* \"simple/11.arrays.sol\":25:531  contract test {... */\n      pop\n      jumpi(tag_2, lt(calldatasize, 0x04))\n      shr(0xe0, calldataload(0x00))\n      dup1\n      0x2283bffd\n      eq\n      tag_3\n      jumpi\n    tag_2:\n      0x00\n      dup1\n      revert\n        /* \"simple/11.arrays.sol\":44:529  function testArray() public pure{... */\n    tag_3:\n      tag_4\n      tag_5\n      jump\t// in\n    tag_4:\n      stop\n    tag_5:\n        /* \"simple/11.arrays.sol\":84:92  uint len */\n      0x00\n        /* \"simple/11.arrays.sol\":95:96  7 */\n      0x07\n        /* \"simple/11.arrays.sol\":84:96  uint len = 7 */\n      swap1\n      pop\n        /* \"simple/11.arrays.sol\":134:149  uint[] memory a */\n      0x60\n        /* \"simple/11.arrays.sol\":163:164  7 */\n      0x07\n        /* \"simple/11.arrays.sol\":152:165  new uint[](7) */\n      mload(0x40)\n      swap1\n      dup1\n      dup3\n      mstore\n      dup1\n      0x20\n      mul\n      0x20\n      add\n      dup3\n      add\n      0x40\n      mstore\n      dup1\n      iszero\n      tag_7\n      jumpi\n      dup2\n      0x20\n      add\n        /* \"--CODEGEN--\":29:31   */\n      0x20\n        /* \"--CODEGEN--\":21:27   */\n      dup3\n        /* \"--CODEGEN--\":17:32   */\n      mul\n        /* \"--CODEGEN--\":117:121   */\n      dup1\n        /* \"--CODEGEN--\":105:115   */\n      codesize\n        /* \"--CODEGEN--\":97:103   */\n      dup4\n        /* \"--CODEGEN--\":88:122   */\n      codecopy\n        /* \"--CODEGEN--\":148:152   */\n      dup1\n        /* \"--CODEGEN--\":140:146   */\n      dup3\n        /* \"--CODEGEN--\":136:153   */\n      add\n        /* \"--CODEGEN--\":126:153   */\n      swap2\n      pop\n        /* \"--CODEGEN--\":0:157   */\n      pop\n        /* \"simple/11.arrays.sol\":152:165  new uint[](7) */\n      swap1\n      pop\n    tag_7:\n      pop\n        /* \"simple/11.arrays.sol\":134:165  uint[] memory a = new uint[](7) */\n      swap1\n      pop\n        /* \"simple/11.arrays.sol\":212:226  bytes memory b */\n      0x60\n        /* \"simple/11.arrays.sol\":239:242  len */\n      dup3\n        /* \"simple/11.arrays.sol\":229:243  new bytes(len) */\n      mload(0x40)\n      swap1\n      dup1\n      dup3\n      mstore\n      dup1\n      0x1f\n      add\n      not(0x1f)\n      and\n      0x20\n      add\n      dup3\n      add\n      0x40\n      mstore\n      dup1\n      iszero\n      tag_8\n      jumpi\n      dup2\n      0x20\n      add\n        /* \"--CODEGEN--\":29:30   */\n      0x01\n        /* \"--CODEGEN--\":21:27   */\n      dup3\n        /* \"--CODEGEN--\":17:31   */\n      mul\n        /* \"--CODEGEN--\":116:120   */\n      dup1\n        /* \"--CODEGEN--\":104:114   */\n      codesize\n        /* \"--CODEGEN--\":96:102   */\n      dup4\n        /* \"--CODEGEN--\":87:121   */\n      codecopy\n        /* \"--CODEGEN--\":147:151   */\n      dup1\n        /* \"--CODEGEN--\":139:145   */\n      dup3\n        /* \"--CODEGEN--\":135:152   */\n      add\n        /* \"--CODEGEN--\":125:152   */\n      swap2\n      pop\n        /* \"--CODEGEN--\":0:156   */\n      pop\n        /* \"simple/11.arrays.sol\":229:243  new bytes(len) */\n      swap1\n      pop\n    tag_8:\n      pop\n        /* \"simple/11.arrays.sol\":212:243  bytes memory b = new bytes(len) */\n      swap1\n      pop\n        /* \"simple/11.arrays.sol\":277:278  7 */\n      0x07\n        /* \"simple/11.arrays.sol\":265:266  a */\n      dup3\n        /* \"simple/11.arrays.sol\":265:273  a.length */\n      mload\n        /* \"simple/11.arrays.sol\":265:278  a.length == 7 */\n      eq\n        /* \"simple/11.arrays.sol\":258:279  assert(a.length == 7) */\n      tag_9\n      jumpi\n      invalid\n    tag_9:\n        /* \"simple/11.arrays.sol\":306:309  len */\n      dup3\n        /* \"simple/11.arrays.sol\":294:295  b */\n      dup2\n        /* \"simple/11.arrays.sol\":294:302  b.length */\n      mload\n        /* \"simple/11.arrays.sol\":294:309  b.length == len */\n      eq\n        /* \"simple/11.arrays.sol\":287:310  assert(b.length == len) */\n      tag_10\n      jumpi\n      invalid\n    tag_10:\n        /* \"simple/11.arrays.sol\":362:363  8 */\n      0x08\n        /* \"simple/11.arrays.sol\":355:356  a */\n      dup3\n        /* \"simple/11.arrays.sol\":357:358  6 */\n      0x06\n        /* \"simple/11.arrays.sol\":355:359  a[6] */\n      dup2\n      mload\n      dup2\n      lt\n      tag_11\n      jumpi\n      invalid\n    tag_11:\n      0x20\n      mul\n      0x20\n      add\n      add\n        /* \"simple/11.arrays.sol\":355:363  a[6] = 8 */\n      dup2\n      dup2\n      mstore\n      pop\n      pop\n        /* \"simple/11.arrays.sol\":421:422  8 */\n      0x08\n        /* \"simple/11.arrays.sol\":413:414  a */\n      dup3\n        /* \"simple/11.arrays.sol\":415:416  6 */\n      0x06\n        /* \"simple/11.arrays.sol\":413:417  a[6] */\n      dup2\n      mload\n      dup2\n      lt\n      tag_12\n      jumpi\n      invalid\n    tag_12:\n      0x20\n      mul\n      0x20\n      add\n      add\n      mload\n        /* \"simple/11.arrays.sol\":413:422  a[6] == 8 */\n      eq\n        /* \"simple/11.arrays.sol\":406:423  assert(a[6] == 8) */\n      tag_13\n      jumpi\n      invalid\n    tag_13:\n        /* \"simple/11.arrays.sol\":459:475  uint[3] memory c */\n      tag_14\n      tag_15\n      jump\t// in\n    tag_14:\n        /* \"simple/11.arrays.sol\":459:494  uint[3] memory c = [uint(1) , 2, 3] */\n      mload(0x40)\n      dup1\n      0x60\n      add\n      0x40\n      mstore\n      dup1\n        /* \"simple/11.arrays.sol\":484:485  1 */\n      0x01\n        /* \"simple/11.arrays.sol\":459:494  uint[3] memory c = [uint(1) , 2, 3] */\n      dup2\n      mstore\n      0x20\n      add\n        /* \"simple/11.arrays.sol\":489:490  2 */\n      0x02\n        /* \"simple/11.arrays.sol\":459:494  uint[3] memory c = [uint(1) , 2, 3] */\n      dup2\n      mstore\n      0x20\n      add\n        /* \"simple/11.arrays.sol\":492:493  3 */\n      0x03\n        /* \"simple/11.arrays.sol\":459:494  uint[3] memory c = [uint(1) , 2, 3] */\n      dup2\n      mstore\n      pop\n      swap1\n      pop\n        /* \"simple/11.arrays.sol\":521:522  3 */\n      0x03\n        /* \"simple/11.arrays.sol\":509:517  c.length */\n      dup1\n        /* \"simple/11.arrays.sol\":509:522  c.length == 3 */\n      eq\n        /* \"simple/11.arrays.sol\":502:523  assert(c.length == 3) */\n      tag_16\n      jumpi\n      invalid\n    tag_16:\n        /* \"simple/11.arrays.sol\":44:529  function testArray() public pure{... */\n      pop\n      pop\n      pop\n      pop\n      jump\t// out\n        /* \"simple/11.arrays.sol\":25:531  contract test {... */\n    tag_15:\n      mload(0x40)\n      dup1\n      0x60\n      add\n      0x40\n      mstore\n      dup1\n      0x03\n      swap1\n        /* \"--CODEGEN--\":29:31   */\n      0x20\n        /* \"--CODEGEN--\":21:27   */\n      dup3\n        /* \"--CODEGEN--\":17:32   */\n      mul\n        /* \"--CODEGEN--\":117:121   */\n      dup1\n        /* \"--CODEGEN--\":105:115   */\n      codesize\n        /* \"--CODEGEN--\":97:103   */\n      dup4\n        /* \"--CODEGEN--\":88:122   */\n      codecopy\n        /* \"--CODEGEN--\":148:152   */\n      dup1\n        /* \"--CODEGEN--\":140:146   */\n      dup3\n        /* \"--CODEGEN--\":136:153   */\n      add\n        /* \"--CODEGEN--\":126:153   */\n      swap2\n      pop\n        /* \"--CODEGEN--\":0:157   */\n      pop\n        /* \"simple/11.arrays.sol\":25:531  contract test {... */\n      swap1\n      pop\n      pop\n      swap1\n      jump\t// out\n\n    auxdata: 0xa265627a7a72315820f4189bd0d4ef0db0312c4365a7323cb0debe07d184effb203cc28d42eb49a2af64736f6c63430005110032\n}\n",
				"bytecode": {
					"linkReferences": {},
					"object": "608060405234801561001057600080fd5b5061018a806100206000396000f3fe608060405234801561001057600080fd5b506004361061002b5760003560e01c80632283bffd14610030575b600080fd5b61003861003a565b005b600060079050606060076040519080825280602002602001820160405280156100725781602001602082028038833980820191505090505b5090506060826040519080825280601f01601f1916602001820160405280156100aa5781602001600182028038833980820191505090505b50905060078251146100b857fe5b828151146100c257fe5b6008826006815181106100d157fe5b6020026020010181815250506008826006815181106100ec57fe5b6020026020010151146100fb57fe5b610103610133565b60405180606001604052806001815260200160028152602001600381525090506003801461012d57fe5b50505050565b604051806060016040528060039060208202803883398082019150509050509056fea265627a7a72315820f4189bd0d4ef0db0312c4365a7323cb0debe07d184effb203cc28d42eb49a2af64736f6c63430005110032",
					"opcodes": "PUSH1 0x80 PUSH1 0x40 MSTORE CALLVALUE DUP1 ISZERO PUSH2 0x10 JUMPI PUSH1 0x0 DUP1 REVERT JUMPDEST POP PUSH2 0x18A DUP1 PUSH2 0x20 PUSH1 0x0 CODECOPY PUSH1 0x0 RETURN INVALID PUSH1 0x80 PUSH1 0x40 MSTORE CALLVALUE DUP1 ISZERO PUSH2 0x10 JUMPI PUSH1 0x0 DUP1 REVERT JUMPDEST POP PUSH1 0x4 CALLDATASIZE LT PUSH2 0x2B JUMPI PUSH1 0x0 CALLDATALOAD PUSH1 0xE0 SHR DUP1 PUSH4 0x2283BFFD EQ PUSH2 0x30 JUMPI JUMPDEST PUSH1 0x0 DUP1 REVERT JUMPDEST PUSH2 0x38 PUSH2 0x3A JUMP JUMPDEST STOP JUMPDEST PUSH1 0x0 PUSH1 0x7 SWAP1 POP PUSH1 0x60 PUSH1 0x7 PUSH1 0x40 MLOAD SWAP1 DUP1 DUP3 MSTORE DUP1 PUSH1 0x20 MUL PUSH1 0x20 ADD DUP3 ADD PUSH1 0x40 MSTORE DUP1 ISZERO PUSH2 0x72 JUMPI DUP2 PUSH1 0x20 ADD PUSH1 0x20 DUP3 MUL DUP1 CODESIZE DUP4 CODECOPY DUP1 DUP3 ADD SWAP2 POP POP SWAP1 POP JUMPDEST POP SWAP1 POP PUSH1 0x60 DUP3 PUSH1 0x40 MLOAD SWAP1 DUP1 DUP3 MSTORE DUP1 PUSH1 0x1F ADD PUSH1 0x1F NOT AND PUSH1 0x20 ADD DUP3 ADD PUSH1 0x40 MSTORE DUP1 ISZERO PUSH2 0xAA JUMPI DUP2 PUSH1 0x20 ADD PUSH1 0x1 DUP3 MUL DUP1 CODESIZE DUP4 CODECOPY DUP1 DUP3 ADD SWAP2 POP POP SWAP1 POP JUMPDEST POP SWAP1 POP PUSH1 0x7 DUP3 MLOAD EQ PUSH2 0xB8 JUMPI INVALID JUMPDEST DUP3 DUP2 MLOAD EQ PUSH2 0xC2 JUMPI INVALID JUMPDEST PUSH1 0x8 DUP3 PUSH1 0x6 DUP2 MLOAD DUP2 LT PUSH2 0xD1 JUMPI INVALID JUMPDEST PUSH1 0x20 MUL PUSH1 0x20 ADD ADD DUP2 DUP2 MSTORE POP POP PUSH1 0x8 DUP3 PUSH1 0x6 DUP2 MLOAD DUP2 LT PUSH2 0xEC JUMPI INVALID JUMPDEST PUSH1 0x20 MUL PUSH1 0x20 ADD ADD MLOAD EQ PUSH2 0xFB JUMPI INVALID JUMPDEST PUSH2 0x103 PUSH2 0x133 JUMP JUMPDEST PUSH1 0x40 MLOAD DUP1 PUSH1 0x60 ADD PUSH1 0x40 MSTORE DUP1 PUSH1 0x1 DUP2 MSTORE PUSH1 0x20 ADD PUSH1 0x2 DUP2 MSTORE PUSH1 0x20 ADD PUSH1 0x3 DUP2 MSTORE POP SWAP1 POP PUSH1 0x3 DUP1 EQ PUSH2 0x12D JUMPI INVALID JUMPDEST POP POP POP POP JUMP JUMPDEST PUSH1 0x40 MLOAD DUP1 PUSH1 0x60 ADD PUSH1 0x40 MSTORE DUP1 PUSH1 0x3 SWAP1 PUSH1 0x20 DUP3 MUL DUP1 CODESIZE DUP4 CODECOPY DUP1 DUP3 ADD SWAP2 POP POP SWAP1 POP POP SWAP1 JUMP INVALID LOG2 PUSH6 0x627A7A723158 KECCAK256 DELEGATECALL XOR SWAP12 0xD0 0xD4 0xEF 0xD 0xB0 BALANCE 0x2C NUMBER PUSH6 0xA7323CB0DEBE SMOD 0xD1 DUP5 0xEF 0xFB KECCAK256 EXTCODECOPY 0xC2 DUP14 TIMESTAMP 0xEB 0x49 LOG2 0xAF PUSH5 0x736F6C6343 STOP SDIV GT STOP ORIGIN "
				},
				"gasEstimates": {
					"creation": {
						"codeDepositCost": "78800",
						"executionCost": "129",
						"totalCost": "78929"
					},
					"external": {
						"testArray()": "infinite"
					}
				},
				"methodIdentifiers": {
					"testArray()": "2283bffd"
				}
			},
			"storageLayout": {
				"storage": [],
				"types": null
			},
			"userdoc": {
				"methods": {}
			}
		}
	}
}